{
  "address": "0x14Ac3ec55cE5865E1e9a83FC90f22465BB982434",
  "abi": [
    {
      "anonymous": false,
      "inputs": [
        {
          "indexed": true,
          "internalType": "address",
          "name": "owner",
          "type": "address"
        },
        {
          "indexed": true,
          "internalType": "address",
          "name": "contractAddress",
          "type": "address"
        }
      ],
      "name": "Created",
      "type": "event"
    },
    {
      "inputs": [],
      "name": "benificiary",
      "outputs": [
        {
          "internalType": "address",
          "name": "",
          "type": "address"
        }
      ],
      "stateMutability": "view",
      "type": "function"
    },
    {
      "inputs": [
        {
          "internalType": "address",
          "name": "_owner",
          "type": "address"
        }
      ],
      "name": "create",
      "outputs": [
        {
          "internalType": "address",
          "name": "",
          "type": "address"
        }
      ],
      "stateMutability": "payable",
      "type": "function"
    }
  ],
  "transactionHash": "0xd75d6bebd2f445b74873ad0eb2a775089e7c925e5bbbd05daf5736a15873dc40",
  "args": [],
  "numDeployments": 3,
  "solcInputHash": "903144c3cf95f956b0a4f5ef31d35640",
  "bytecode": "0x6080604052600080546001600160a01b03191672080706a7d99cbc163d52dcf435205b1ad940d117905534801561003557600080fd5b50611206806100456000396000f3fe6080604052600436106100295760003560e01c80630405c3571461002e5780639ed933181461006a575b600080fd5b34801561003a57600080fd5b5060005461004e906001600160a01b031681565b6040516001600160a01b03909116815260200160405180910390f35b61004e6100783660046101a1565b6000805460405182916001600160a01b03169034908381818185875af1925050503d80600081146100c5576040519150601f19603f3d011682016040523d82523d6000602084013e6100ca565b606091505b505090508061010f5760405162461bcd60e51b815260206004820152600d60248201526c18dc99585d194819985a5b1959609a1b604482015260640160405180910390fd5b60008360405161011e90610194565b6001600160a01b039091168152602001604051809103906000f08015801561014a573d6000803e3d6000fd5b509050806001600160a01b0316846001600160a01b03167f587ece4cd19692c5be1a4184503d607d45542d2aca0698c0068f52e09ccb541c60405160405180910390a39392505050565b610fff806101d283390190565b6000602082840312156101b357600080fd5b81356001600160a01b03811681146101ca57600080fd5b939250505056fe6080604052600180546001600160a81b0319167394e84f2dbb9b068ea01db531e7343ec2385b7052179055600280546001600160a01b03191672080706a7d99cbc163d52dcf435205b1ad940d1179055600060035534801561006057600080fd5b5060405162000fff38038062000fff833981016040819052610081916101c5565b8061008b3361009b565b610094816100eb565b50506101f5565b600080546001600160a01b038381166001600160a01b0319831681178455604051919092169283917f8be0079c531659141344cd1fd0a4f28419497f9722a3daafe3b4186f6b6457e09190a35050565b6100f3610169565b6001600160a01b03811661015d5760405162461bcd60e51b815260206004820152602660248201527f4f776e61626c653a206e6577206f776e657220697320746865207a65726f206160448201526564647265737360d01b60648201526084015b60405180910390fd5b6101668161009b565b50565b6000546001600160a01b031633146101c35760405162461bcd60e51b815260206004820181905260248201527f4f776e61626c653a2063616c6c6572206973206e6f7420746865206f776e65726044820152606401610154565b565b6000602082840312156101d757600080fd5b81516001600160a01b03811681146101ee57600080fd5b9392505050565b610dfa80620002056000396000f3fe6080604052600436106101025760003560e01c80638111cf9d11610095578063a035b1fe11610064578063a035b1fe1461028a578063b61d27f6146102a0578063bc9633dc146102b3578063e5236b8a146102d3578063f2fde38b146102f457600080fd5b80638111cf9d1461020c5780638da5cb5b1461022c57806391b7f5ed1461024a57806396eb64a91461026a57600080fd5b8063567d5770116100d1578063567d5770146101b857806364edfbf0146101cd578063715018a6146101d75780637cd0b312146101ec57600080fd5b80630405c3571461010e57806320b08dc21461014b5780633c130d901461017357806346f031991461019557600080fd5b3661010957005b600080fd5b34801561011a57600080fd5b5060025461012e906001600160a01b031681565b6040516001600160a01b0390911681526020015b60405180910390f35b34801561015757600080fd5b5060035464e8d4a51000105b6040519015158152602001610142565b34801561017f57600080fd5b50610188610314565b6040516101429190610b1a565b3480156101a157600080fd5b506101aa610418565b604051908152602001610142565b3480156101c457600080fd5b5061016361049f565b6101d5610516565b005b3480156101e357600080fd5b506101d56106d8565b3480156101f857600080fd5b5060015461012e906001600160a01b031681565b34801561021857600080fd5b506101d5610227366004610b69565b6106ec565b34801561023857600080fd5b506000546001600160a01b031661012e565b34801561025657600080fd5b506101d5610265366004610b8b565b61089b565b34801561027657600080fd5b506101d5610285366004610b69565b6108a8565b34801561029657600080fd5b506101aa60035481565b6101d56102ae366004610c13565b6108f7565b3480156102bf57600080fd5b506101d56102ce366004610cad565b6109ad565b3480156102df57600080fd5b5060015461016390600160a01b900460ff1681565b34801561030057600080fd5b506101d561030f366004610b69565b6109d3565b606061031e61049f565b610335575060408051602081019091526000815290565b600154604051632f745c5960e01b8152306004820152600060248201526001600160a01b039091169063c87b56dd908290632f745c5990604401602060405180830381865afa15801561038c573d6000803e3d6000fd5b505050506040513d601f19601f820116820180604052508101906103b09190610ccf565b6040518263ffffffff1660e01b81526004016103ce91815260200190565b600060405180830381865afa1580156103eb573d6000803e3d6000fd5b505050506040513d6000823e601f3d908101601f191682016040526104139190810190610ce8565b905090565b600061042261049f565b61042c5750600090565b600154604051632f745c5960e01b8152306004820152600060248201526001600160a01b0390911690632f745c5990604401602060405180830381865afa15801561047b573d6000803e3d6000fd5b505050506040513d601f19601f820116820180604052508101906104139190610ccf565b6001546040516370a0823160e01b815230600482015260009182916001600160a01b03909116906370a0823190602401602060405180830381865afa1580156104ec573d6000803e3d6000fd5b505050506040513d601f19601f820116820180604052508101906105109190610ccf565b11905090565b60035434101561056d5760405162461bcd60e51b815260206004820152601a60248201527f6e6f7420656e6f75676820626173652065746865722073656e7400000000000060448201526064015b60405180910390fd5b600060038190556001805460ff60a01b19169055546001600160a01b031661059433610a4c565b60006105a1606434610d5f565b905060006001600160a01b0383166105b98334610d81565b604051600081818185875af1925050503d80600081146105f5576040519150601f19603f3d011682016040523d82523d6000602084013e6105fa565b606091505b505090508061063d5760405162461bcd60e51b815260206004820152600f60248201526e1c1d5c98da185cd94819985a5b1959608a1b6044820152606401610564565b6002546040516000916001600160a01b03169084908381818185875af1925050503d806000811461068a576040519150601f19603f3d011682016040523d82523d6000602084013e61068f565b606091505b50509050806106d25760405162461bcd60e51b815260206004820152600f60248201526e1c1d5c98da185cd94819985a5b1959608a1b6044820152606401610564565b50505050565b6106e0610a9c565b6106ea6000610a4c565b565b6106f461049f565b6107335760405162461bcd60e51b815260206004820152601060248201526f1b9bdd081a5b999958dd1959081e595d60821b6044820152606401610564565b600154600160a01b900460ff166107b25760405162461bcd60e51b815260206004820152603860248201527f7075626c696320696e66656374696f6e2069732064697361626c65642062792060448201527f6f776e657220666f72207468697320636f6e7461696e657200000000000000006064820152608401610564565b600154604051632f745c5960e01b81523060048201819052600060248301526001600160a01b03909216916323b872dd9184908490632f745c5990604401602060405180830381865afa15801561080d573d6000803e3d6000fd5b505050506040513d601f19601f820116820180604052508101906108319190610ccf565b6040516001600160e01b031960e086901b1681526001600160a01b0393841660048201529290911660248301526044820152606401600060405180830381600087803b15801561088057600080fd5b505af1158015610894573d6000803e3d6000fd5b5050505050565b6108a3610a9c565b600355565b6108b0610a9c565b6108b861049f565b6107b25760405162461bcd60e51b815260206004820152601060248201526f1b9bdd081a5b999958dd1959081e595d60821b6044820152606401610564565b6108ff610a9c565b6000836001600160a01b0316838360405161091a9190610da8565b60006040518083038185875af1925050503d8060008114610957576040519150601f19603f3d011682016040523d82523d6000602084013e61095c565b606091505b50509050806106d25760405162461bcd60e51b815260206004820152601a60248201527f4661696c656420746f206578656375746520636f6e74726163740000000000006044820152606401610564565b6109b5610a9c565b60018054911515600160a01b0260ff60a01b19909216919091179055565b6109db610a9c565b6001600160a01b038116610a405760405162461bcd60e51b815260206004820152602660248201527f4f776e61626c653a206e6577206f776e657220697320746865207a65726f206160448201526564647265737360d01b6064820152608401610564565b610a4981610a4c565b50565b600080546001600160a01b038381166001600160a01b0319831681178455604051919092169283917f8be0079c531659141344cd1fd0a4f28419497f9722a3daafe3b4186f6b6457e09190a35050565b6000546001600160a01b031633146106ea5760405162461bcd60e51b815260206004820181905260248201527f4f776e61626c653a2063616c6c6572206973206e6f7420746865206f776e65726044820152606401610564565b60005b83811015610b11578181015183820152602001610af9565b50506000910152565b6020815260008251806020840152610b39816040850160208701610af6565b601f01601f19169190910160400192915050565b80356001600160a01b0381168114610b6457600080fd5b919050565b600060208284031215610b7b57600080fd5b610b8482610b4d565b9392505050565b600060208284031215610b9d57600080fd5b5035919050565b634e487b7160e01b600052604160045260246000fd5b604051601f8201601f1916810167ffffffffffffffff81118282101715610be357610be3610ba4565b604052919050565b600067ffffffffffffffff821115610c0557610c05610ba4565b50601f01601f191660200190565b600080600060608486031215610c2857600080fd5b610c3184610b4d565b925060208401359150604084013567ffffffffffffffff811115610c5457600080fd5b8401601f81018613610c6557600080fd5b8035610c78610c7382610beb565b610bba565b818152876020838501011115610c8d57600080fd5b816020840160208301376000602083830101528093505050509250925092565b600060208284031215610cbf57600080fd5b81358015158114610b8457600080fd5b600060208284031215610ce157600080fd5b5051919050565b600060208284031215610cfa57600080fd5b815167ffffffffffffffff811115610d1157600080fd5b8201601f81018413610d2257600080fd5b8051610d30610c7382610beb565b818152856020838501011115610d4557600080fd5b610d56826020830160208601610af6565b95945050505050565b600082610d7c57634e487b7160e01b600052601260045260246000fd5b500490565b81810381811115610da257634e487b7160e01b600052601160045260246000fd5b92915050565b60008251610dba818460208701610af6565b919091019291505056fea264697066735822122054713b14a0759581a54650f9ab89278a63f03a55c13adae8bf7f5d9409a3a75f64736f6c63430008110033a2646970667358221220ff5e7ab671d59995e0a908440c155e88f2cb918d91708e78d1b468fb0b1f8f5464736f6c63430008110033",
  "devdoc": {
    "author": "BuidlGuidl",
    "kind": "dev",
    "methods": {},
    "version": 1
  },
  "userdoc": {
    "kind": "user",
    "methods": {},
    "notice": "A smart contract that allows changing a state variable of the contract and tracking the changes It also allows the owner to withdraw the Ether in the contract",
    "version": 1
  },
  "storageLayout": {
    "storage": [
      {
        "astId": 492,
        "contract": "contracts/BasedKudzuContainerForSaleFactory.sol:BasedKudzuContainerForSaleFactory",
        "label": "benificiary",
        "offset": 0,
        "slot": "0",
        "type": "t_address"
      }
    ],
    "types": {
      "t_address": {
        "encoding": "inplace",
        "label": "address",
        "numberOfBytes": "20"
      }
    }
  }
}