{
  "address": "0xdD422e90c443552C8d595B1b9bFb344d36c30684",
  "abi": [
    {
      "inputs": [
        {
          "internalType": "address",
          "name": "_owner",
          "type": "address"
        }
      ],
      "stateMutability": "nonpayable",
      "type": "constructor"
    },
    {
      "anonymous": false,
      "inputs": [
        {
          "indexed": true,
          "internalType": "address",
          "name": "previousOwner",
          "type": "address"
        },
        {
          "indexed": true,
          "internalType": "address",
          "name": "newOwner",
          "type": "address"
        }
      ],
      "name": "OwnershipTransferred",
      "type": "event"
    },
    {
      "inputs": [],
      "name": "canPubliclyInfect",
      "outputs": [
        {
          "internalType": "bool",
          "name": "",
          "type": "bool"
        }
      ],
      "stateMutability": "view",
      "type": "function"
    },
    {
      "inputs": [
        {
          "internalType": "address",
          "name": "_to",
          "type": "address"
        },
        {
          "internalType": "uint256",
          "name": "_value",
          "type": "uint256"
        },
        {
          "internalType": "bytes",
          "name": "_data",
          "type": "bytes"
        }
      ],
      "name": "execute",
      "outputs": [],
      "stateMutability": "payable",
      "type": "function"
    },
    {
      "inputs": [
        {
          "internalType": "address",
          "name": "toAddress",
          "type": "address"
        }
      ],
      "name": "infect",
      "outputs": [],
      "stateMutability": "nonpayable",
      "type": "function"
    },
    {
      "inputs": [],
      "name": "infectedWithTokenId",
      "outputs": [
        {
          "internalType": "uint256",
          "name": "",
          "type": "uint256"
        }
      ],
      "stateMutability": "view",
      "type": "function"
    },
    {
      "inputs": [],
      "name": "isInfected",
      "outputs": [
        {
          "internalType": "bool",
          "name": "",
          "type": "bool"
        }
      ],
      "stateMutability": "view",
      "type": "function"
    },
    {
      "inputs": [],
      "name": "kudzuContract",
      "outputs": [
        {
          "internalType": "contract KUDZU",
          "name": "",
          "type": "address"
        }
      ],
      "stateMutability": "view",
      "type": "function"
    },
    {
      "inputs": [],
      "name": "owner",
      "outputs": [
        {
          "internalType": "address",
          "name": "",
          "type": "address"
        }
      ],
      "stateMutability": "view",
      "type": "function"
    },
    {
      "inputs": [
        {
          "internalType": "address",
          "name": "toAddress",
          "type": "address"
        }
      ],
      "name": "publiclyInfect",
      "outputs": [],
      "stateMutability": "nonpayable",
      "type": "function"
    },
    {
      "inputs": [],
      "name": "renounceOwnership",
      "outputs": [],
      "stateMutability": "nonpayable",
      "type": "function"
    },
    {
      "inputs": [
        {
          "internalType": "bool",
          "name": "_canPubliclyInfect",
          "type": "bool"
        }
      ],
      "name": "setCanPubliclyInfect",
      "outputs": [],
      "stateMutability": "nonpayable",
      "type": "function"
    },
    {
      "inputs": [],
      "name": "tokenURI",
      "outputs": [
        {
          "internalType": "string",
          "name": "",
          "type": "string"
        }
      ],
      "stateMutability": "view",
      "type": "function"
    },
    {
      "inputs": [
        {
          "internalType": "address",
          "name": "newOwner",
          "type": "address"
        }
      ],
      "name": "transferOwnership",
      "outputs": [],
      "stateMutability": "nonpayable",
      "type": "function"
    },
    {
      "stateMutability": "payable",
      "type": "receive"
    }
  ],
  "transactionHash": "0x19e0fdd5757d6ce2b85a43537ac8434fa6389b83347204f3d531f95ea2e9149f",
  "args": [
    "0x34aA3F359A9D614239015126635CE7732c18fDF3"
  ],
  "numDeployments": 1,
  "solcInputHash": "de16eb7a7af8246596c37dd417973a31",
  "bytecode": "0x6080604052600180546001600160a81b0319167394e84f2dbb9b068ea01db531e7343ec2385b705217905534801561003657600080fd5b50604051610ce2380380610ce283398101604081905261005591610197565b61005e3361006d565b610067816100bd565b506101c7565b600080546001600160a01b038381166001600160a01b0319831681178455604051919092169283917f8be0079c531659141344cd1fd0a4f28419497f9722a3daafe3b4186f6b6457e09190a35050565b6100c561013b565b6001600160a01b03811661012f5760405162461bcd60e51b815260206004820152602660248201527f4f776e61626c653a206e6577206f776e657220697320746865207a65726f206160448201526564647265737360d01b60648201526084015b60405180910390fd5b6101388161006d565b50565b6000546001600160a01b031633146101955760405162461bcd60e51b815260206004820181905260248201527f4f776e61626c653a2063616c6c6572206973206e6f7420746865206f776e65726044820152606401610126565b565b6000602082840312156101a957600080fd5b81516001600160a01b03811681146101c057600080fd5b9392505050565b610b0c806101d66000396000f3fe6080604052600436106100ab5760003560e01c80638da5cb5b116100645780638da5cb5b1461019957806396eb64a9146101b7578063b61d27f6146101d7578063bc9633dc146101ea578063e5236b8a1461020a578063f2fde38b1461022b57600080fd5b80633c130d90146100b757806346f03199146100e2578063567d577014610105578063715018a61461012a5780637cd0b312146101415780638111cf9d1461017957600080fd5b366100b257005b600080fd5b3480156100c357600080fd5b506100cc61024b565b6040516100d9919061088e565b60405180910390f35b3480156100ee57600080fd5b506100f761034f565b6040519081526020016100d9565b34801561011157600080fd5b5061011a6103d6565b60405190151581526020016100d9565b34801561013657600080fd5b5061013f61044d565b005b34801561014d57600080fd5b50600154610161906001600160a01b031681565b6040516001600160a01b0390911681526020016100d9565b34801561018557600080fd5b5061013f6101943660046108dd565b610461565b3480156101a557600080fd5b506000546001600160a01b0316610161565b3480156101c357600080fd5b5061013f6101d23660046108dd565b610615565b61013f6101e536600461096e565b610665565b3480156101f657600080fd5b5061013f610205366004610a08565b610721565b34801561021657600080fd5b5060015461011a90600160a01b900460ff1681565b34801561023757600080fd5b5061013f6102463660046108dd565b610747565b60606102556103d6565b61026c575060408051602081019091526000815290565b600154604051632f745c5960e01b8152306004820152600060248201526001600160a01b039091169063c87b56dd908290632f745c5990604401602060405180830381865afa1580156102c3573d6000803e3d6000fd5b505050506040513d601f19601f820116820180604052508101906102e79190610a2a565b6040518263ffffffff1660e01b815260040161030591815260200190565b600060405180830381865afa158015610322573d6000803e3d6000fd5b505050506040513d6000823e601f3d908101601f1916820160405261034a9190810190610a43565b905090565b60006103596103d6565b6103635750600090565b600154604051632f745c5960e01b8152306004820152600060248201526001600160a01b0390911690632f745c5990604401602060405180830381865afa1580156103b2573d6000803e3d6000fd5b505050506040513d601f19601f8201168201806040525081019061034a9190610a2a565b6001546040516370a0823160e01b815230600482015260009182916001600160a01b03909116906370a0823190602401602060405180830381865afa158015610423573d6000803e3d6000fd5b505050506040513d601f19601f820116820180604052508101906104479190610a2a565b11905090565b6104556107c0565b61045f600061081a565b565b6104696103d6565b6104ad5760405162461bcd60e51b815260206004820152601060248201526f1b9bdd081a5b999958dd1959081e595d60821b60448201526064015b60405180910390fd5b600154600160a01b900460ff1661052c5760405162461bcd60e51b815260206004820152603860248201527f7075626c696320696e66656374696f6e2069732064697361626c65642062792060448201527f6f776e657220666f72207468697320636f6e7461696e6572000000000000000060648201526084016104a4565b600154604051632f745c5960e01b81523060048201819052600060248301526001600160a01b03909216916323b872dd9184908490632f745c5990604401602060405180830381865afa158015610587573d6000803e3d6000fd5b505050506040513d601f19601f820116820180604052508101906105ab9190610a2a565b6040516001600160e01b031960e086901b1681526001600160a01b0393841660048201529290911660248301526044820152606401600060405180830381600087803b1580156105fa57600080fd5b505af115801561060e573d6000803e3d6000fd5b5050505050565b61061d6107c0565b6106256103d6565b1561052c5760405162461bcd60e51b815260206004820152601060248201526f1b9bdd081a5b999958dd1959081e595d60821b60448201526064016104a4565b61066d6107c0565b6000836001600160a01b031683836040516106889190610aba565b60006040518083038185875af1925050503d80600081146106c5576040519150601f19603f3d011682016040523d82523d6000602084013e6106ca565b606091505b505090508061071b5760405162461bcd60e51b815260206004820152601a60248201527f4661696c656420746f206578656375746520636f6e747261637400000000000060448201526064016104a4565b50505050565b6107296107c0565b60018054911515600160a01b0260ff60a01b19909216919091179055565b61074f6107c0565b6001600160a01b0381166107b45760405162461bcd60e51b815260206004820152602660248201527f4f776e61626c653a206e6577206f776e657220697320746865207a65726f206160448201526564647265737360d01b60648201526084016104a4565b6107bd8161081a565b50565b6000546001600160a01b0316331461045f5760405162461bcd60e51b815260206004820181905260248201527f4f776e61626c653a2063616c6c6572206973206e6f7420746865206f776e657260448201526064016104a4565b600080546001600160a01b038381166001600160a01b0319831681178455604051919092169283917f8be0079c531659141344cd1fd0a4f28419497f9722a3daafe3b4186f6b6457e09190a35050565b60005b8381101561088557818101518382015260200161086d565b50506000910152565b60208152600082518060208401526108ad81604085016020870161086a565b601f01601f19169190910160400192915050565b80356001600160a01b03811681146108d857600080fd5b919050565b6000602082840312156108ef57600080fd5b6108f8826108c1565b9392505050565b634e487b7160e01b600052604160045260246000fd5b604051601f8201601f1916810167ffffffffffffffff8111828210171561093e5761093e6108ff565b604052919050565b600067ffffffffffffffff821115610960576109606108ff565b50601f01601f191660200190565b60008060006060848603121561098357600080fd5b61098c846108c1565b925060208401359150604084013567ffffffffffffffff8111156109af57600080fd5b8401601f810186136109c057600080fd5b80356109d36109ce82610946565b610915565b8181528760208385010111156109e857600080fd5b816020840160208301376000602083830101528093505050509250925092565b600060208284031215610a1a57600080fd5b813580151581146108f857600080fd5b600060208284031215610a3c57600080fd5b5051919050565b600060208284031215610a5557600080fd5b815167ffffffffffffffff811115610a6c57600080fd5b8201601f81018413610a7d57600080fd5b8051610a8b6109ce82610946565b818152856020838501011115610aa057600080fd5b610ab182602083016020860161086a565b95945050505050565b60008251610acc81846020870161086a565b919091019291505056fea2646970667358221220108fe990f974ae327913873c428f264bdbafeb05ec10be51127e5262ae5ccbc064736f6c63430008110033",
  "devdoc": {
    "author": "BuidlGuidl",
    "kind": "dev",
    "methods": {
      "owner()": {
        "details": "Returns the address of the current owner."
      },
      "renounceOwnership()": {
        "details": "Leaves the contract without owner. It will not be possible to call `onlyOwner` functions. Can only be called by the current owner. NOTE: Renouncing ownership will leave the contract without an owner, thereby disabling any functionality that is only available to the owner."
      },
      "transferOwnership(address)": {
        "details": "Transfers ownership of the contract to a new account (`newOwner`). Can only be called by the current owner."
      }
    },
    "version": 1
  },
  "userdoc": {
    "kind": "user",
    "methods": {},
    "notice": "A smart contract that allows changing a state variable of the contract and tracking the changes It also allows the owner to withdraw the Ether in the contract",
    "version": 1
  },
  "storageLayout": {
    "storage": [
      {
        "astId": 7,
        "contract": "contracts/BasedKudzuContainer.sol:BasedKudzuContainer",
        "label": "_owner",
        "offset": 0,
        "slot": "0",
        "type": "t_address"
      },
      {
        "astId": 187,
        "contract": "contracts/BasedKudzuContainer.sol:BasedKudzuContainer",
        "label": "kudzuContract",
        "offset": 0,
        "slot": "1",
        "type": "t_contract(KUDZU)178"
      },
      {
        "astId": 286,
        "contract": "contracts/BasedKudzuContainer.sol:BasedKudzuContainer",
        "label": "canPubliclyInfect",
        "offset": 20,
        "slot": "1",
        "type": "t_bool"
      }
    ],
    "types": {
      "t_address": {
        "encoding": "inplace",
        "label": "address",
        "numberOfBytes": "20"
      },
      "t_bool": {
        "encoding": "inplace",
        "label": "bool",
        "numberOfBytes": "1"
      },
      "t_contract(KUDZU)178": {
        "encoding": "inplace",
        "label": "contract KUDZU",
        "numberOfBytes": "20"
      }
    }
  }
}